{
  "_format": "hh-sol-artifact-1",
  "contractName": "CertificateVerifier",
  "sourceName": "contracts/CertificateVerifier.sol",
  "abi": [
    {
      "inputs": [],
      "stateMutability": "nonpayable",
      "type": "constructor"
    },
    {
      "inputs": [
        {
          "internalType": "address",
          "name": "owner",
          "type": "address"
        }
      ],
      "name": "OwnableInvalidOwner",
      "type": "error"
    },
    {
      "inputs": [
        {
          "internalType": "address",
          "name": "account",
          "type": "address"
        }
      ],
      "name": "OwnableUnauthorizedAccount",
      "type": "error"
    },
    {
      "anonymous": false,
      "inputs": [
        {
          "indexed": true,
          "internalType": "bytes32",
          "name": "hash",
          "type": "bytes32"
        },
        {
          "indexed": true,
          "internalType": "address",
          "name": "issuer",
          "type": "address"
        },
        {
          "indexed": false,
          "internalType": "string",
          "name": "name",
          "type": "string"
        },
        {
          "indexed": false,
          "internalType": "string",
          "name": "title",
          "type": "string"
        },
        {
          "indexed": false,
          "internalType": "string",
          "name": "cid",
          "type": "string"
        },
        {
          "indexed": false,
          "internalType": "uint256",
          "name": "timestamp",
          "type": "uint256"
        }
      ],
      "name": "CertificateIssued",
      "type": "event"
    },
    {
      "anonymous": false,
      "inputs": [
        {
          "indexed": true,
          "internalType": "bytes32",
          "name": "hash",
          "type": "bytes32"
        }
      ],
      "name": "CertificateRevoked",
      "type": "event"
    },
    {
      "anonymous": false,
      "inputs": [
        {
          "indexed": true,
          "internalType": "bytes32",
          "name": "hash",
          "type": "bytes32"
        },
        {
          "indexed": true,
          "internalType": "address",
          "name": "verifier",
          "type": "address"
        },
        {
          "indexed": false,
          "internalType": "uint256",
          "name": "timestamp",
          "type": "uint256"
        }
      ],
      "name": "CertificateVerified",
      "type": "event"
    },
    {
      "anonymous": false,
      "inputs": [
        {
          "indexed": true,
          "internalType": "address",
          "name": "issuer",
          "type": "address"
        }
      ],
      "name": "IssuerAdded",
      "type": "event"
    },
    {
      "anonymous": false,
      "inputs": [
        {
          "indexed": true,
          "internalType": "address",
          "name": "issuer",
          "type": "address"
        }
      ],
      "name": "IssuerRemoved",
      "type": "event"
    },
    {
      "anonymous": false,
      "inputs": [
        {
          "indexed": true,
          "internalType": "address",
          "name": "previousOwner",
          "type": "address"
        },
        {
          "indexed": true,
          "internalType": "address",
          "name": "newOwner",
          "type": "address"
        }
      ],
      "name": "OwnershipTransferred",
      "type": "event"
    },
    {
      "inputs": [
        {
          "internalType": "address",
          "name": "_issuer",
          "type": "address"
        }
      ],
      "name": "addIssuer",
      "outputs": [],
      "stateMutability": "nonpayable",
      "type": "function"
    },
    {
      "inputs": [
        {
          "internalType": "address",
          "name": "",
          "type": "address"
        }
      ],
      "name": "authorizedIssuers",
      "outputs": [
        {
          "internalType": "bool",
          "name": "",
          "type": "bool"
        }
      ],
      "stateMutability": "view",
      "type": "function"
    },
    {
      "inputs": [
        {
          "internalType": "bytes32",
          "name": "",
          "type": "bytes32"
        }
      ],
      "name": "certificates",
      "outputs": [
        {
          "internalType": "bytes32",
          "name": "contentHash",
          "type": "bytes32"
        },
        {
          "internalType": "address",
          "name": "issuer",
          "type": "address"
        },
        {
          "internalType": "uint256",
          "name": "timestamp",
          "type": "uint256"
        },
        {
          "internalType": "bool",
          "name": "isValid",
          "type": "bool"
        }
      ],
      "stateMutability": "view",
      "type": "function"
    },
    {
      "inputs": [
        {
          "internalType": "bytes32",
          "name": "_contentHash",
          "type": "bytes32"
        },
        {
          "internalType": "string",
          "name": "_name",
          "type": "string"
        },
        {
          "internalType": "string",
          "name": "_title",
          "type": "string"
        },
        {
          "internalType": "string",
          "name": "_cid",
          "type": "string"
        }
      ],
      "name": "issueCertificate",
      "outputs": [],
      "stateMutability": "nonpayable",
      "type": "function"
    },
    {
      "inputs": [],
      "name": "owner",
      "outputs": [
        {
          "internalType": "address",
          "name": "",
          "type": "address"
        }
      ],
      "stateMutability": "view",
      "type": "function"
    },
    {
      "inputs": [
        {
          "internalType": "bytes32",
          "name": "_contentHash",
          "type": "bytes32"
        }
      ],
      "name": "recordVerification",
      "outputs": [],
      "stateMutability": "nonpayable",
      "type": "function"
    },
    {
      "inputs": [
        {
          "internalType": "address",
          "name": "_issuer",
          "type": "address"
        }
      ],
      "name": "removeIssuer",
      "outputs": [],
      "stateMutability": "nonpayable",
      "type": "function"
    },
    {
      "inputs": [],
      "name": "renounceOwnership",
      "outputs": [],
      "stateMutability": "nonpayable",
      "type": "function"
    },
    {
      "inputs": [
        {
          "internalType": "bytes32",
          "name": "_contentHash",
          "type": "bytes32"
        }
      ],
      "name": "revokeCertificate",
      "outputs": [],
      "stateMutability": "nonpayable",
      "type": "function"
    },
    {
      "inputs": [],
      "name": "totalIssued",
      "outputs": [
        {
          "internalType": "uint256",
          "name": "",
          "type": "uint256"
        }
      ],
      "stateMutability": "view",
      "type": "function"
    },
    {
      "inputs": [],
      "name": "totalRevoked",
      "outputs": [
        {
          "internalType": "uint256",
          "name": "",
          "type": "uint256"
        }
      ],
      "stateMutability": "view",
      "type": "function"
    },
    {
      "inputs": [
        {
          "internalType": "address",
          "name": "newOwner",
          "type": "address"
        }
      ],
      "name": "transferOwnership",
      "outputs": [],
      "stateMutability": "nonpayable",
      "type": "function"
    },
    {
      "inputs": [
        {
          "internalType": "bytes32",
          "name": "_contentHash",
          "type": "bytes32"
        }
      ],
      "name": "verifyCertificate",
      "outputs": [
        {
          "internalType": "bool",
          "name": "exists",
          "type": "bool"
        },
        {
          "internalType": "bool",
          "name": "valid",
          "type": "bool"
        },
        {
          "internalType": "address",
          "name": "issuer",
          "type": "address"
        },
        {
          "internalType": "uint256",
          "name": "timestamp",
          "type": "uint256"
        }
      ],
      "stateMutability": "view",
      "type": "function"
    }
  ],
  "bytecode": "0x6080604052348015600f57600080fd5b503380603557604051631e4fbdf760e01b81526000600482015260240160405180910390fd5b603c81605b565b50336000908152600260205260409020805460ff1916600117905560ab565b600080546001600160a01b038381166001600160a01b0319831681178455604051919092169283917f8be0079c531659141344cd1fd0a4f28419497f9722a3daafe3b4186f6b6457e09190a35050565b610a93806100ba6000396000f3fe608060405234801561001057600080fd5b50600436106100cf5760003560e01c80638da5cb5b1161008c578063e62ce7ac11610066578063e62ce7ac14610260578063f2fde38b14610277578063f5be31931461028a578063f731fa0f1461029357600080fd5b80638da5cb5b1461021f578063a246b9681461023a578063c6cbc52a1461024d57600080fd5b806320694db0146100d457806347bc7093146100e95780635e0bfb61146100fc578063715018a61461010f578063742f068814610117578063850c176814610189575b600080fd5b6100e76100e2366004610819565b6102c6565b005b6100e76100f7366004610819565b61031a565b6100e761010a366004610849565b61036b565b6100e7610441565b61015a610125366004610849565b600160208190526000918252604090912080549181015460028201546003909201546001600160a01b03909116919060ff1684565b604080519485526001600160a01b03909316602085015291830152151560608201526080015b60405180910390f35b6101ee610197366004610849565b600090815260016020818152604092839020835160808101855281548152928101546001600160a01b031691830182905260028101549383018490526003015460ff16151560609092018290528215159391929091565b6040516101809493929190931515845291151560208401526001600160a01b03166040830152606082015260800190565b6000546040516001600160a01b039091168152602001610180565b6100e7610248366004610907565b610455565b6100e761025b366004610849565b6105de565b61026960045481565b604051908152602001610180565b6100e7610285366004610819565b61075e565b61026960035481565b6102b66102a1366004610819565b60026020526000908152604090205460ff1681565b6040519015158152602001610180565b6102ce61079c565b6001600160a01b038116600081815260026020526040808220805460ff19166001179055517f05e7c881d716bee8cb7ed92293133ba156704252439e5c502c277448f04e20c29190a250565b61032261079c565b6001600160a01b038116600081815260026020526040808220805460ff19169055517faf66545c919a3be306ee446d8f42a9558b5b022620df880517bc9593ec0f2d529190a250565b60008181526001602052604081206002015490036103bc5760405162461bcd60e51b8152602060048201526009602482015268139bdd08199bdd5b9960ba1b60448201526064015b60405180910390fd5b60008181526001602052604090206003015460ff166104075760405162461bcd60e51b815260206004820152600760248201526614995d9bdad95960ca1b60448201526064016103b3565b604051428152339082907fcd9d63cce3a9ffb8c7c60f211ff1fb5f211a7571b13ebfef732ae16222ca46899060200160405180910390a350565b61044961079c565b61045360006107c9565b565b3360009081526002602052604090205460ff168061047d57506000546001600160a01b031633145b6104c15760405162461bcd60e51b815260206004820152601560248201527410d85b1b195c881b9bdd08185d5d1a1bdc9a5e9959605a1b60448201526064016103b3565b600084815260016020526040902060020154156105095760405162461bcd60e51b815260206004820152600660248201526545786973747360d01b60448201526064016103b3565b604080516080810182528581523360208083019182524283850190815260016060850181815260008b81529382905295832094518555925192840180546001600160a01b0319166001600160a01b03909416939093179092559051600283015591516003918201805460ff191691151591909117905580549161058b836109a5565b9190505550336001600160a01b0316847f754bd83ecd3dea10818b984667f56d2b1a2cce2defe059372aa5cf632efd56f6858585426040516105d09493929190610a12565b60405180910390a350505050565b3360009081526002602052604090205460ff168061060657506000546001600160a01b031633145b61064a5760405162461bcd60e51b815260206004820152601560248201527410d85b1b195c881b9bdd08185d5d1a1bdc9a5e9959605a1b60448201526064016103b3565b60008181526001602052604081206002015490036106965760405162461bcd60e51b8152602060048201526009602482015268139bdd08199bdd5b9960ba1b60448201526064016103b3565b600081815260016020819052604090912001546001600160a01b03163314806106c957506000546001600160a01b031633145b6107045760405162461bcd60e51b815260206004820152600c60248201526b155b985d5d1a1bdc9a5e995960a21b60448201526064016103b3565b6000818152600160205260408120600301805460ff19169055600480549161072b836109a5565b909155505060405181907f44d80a438cb4fa3b5aedbe551ce3d9382e37f446917b783e1dee70a03b4180e390600090a250565b61076661079c565b6001600160a01b03811661079057604051631e4fbdf760e01b8152600060048201526024016103b3565b610799816107c9565b50565b6000546001600160a01b031633146104535760405163118cdaa760e01b81523360048201526024016103b3565b600080546001600160a01b038381166001600160a01b0319831681178455604051919092169283917f8be0079c531659141344cd1fd0a4f28419497f9722a3daafe3b4186f6b6457e09190a35050565b60006020828403121561082b57600080fd5b81356001600160a01b038116811461084257600080fd5b9392505050565b60006020828403121561085b57600080fd5b5035919050565b634e487b7160e01b600052604160045260246000fd5b600082601f83011261088957600080fd5b813567ffffffffffffffff8111156108a3576108a3610862565b604051601f8201601f19908116603f0116810167ffffffffffffffff811182821017156108d2576108d2610862565b6040528181528382016020018510156108ea57600080fd5b816020850160208301376000918101602001919091529392505050565b6000806000806080858703121561091d57600080fd5b84359350602085013567ffffffffffffffff81111561093b57600080fd5b61094787828801610878565b935050604085013567ffffffffffffffff81111561096457600080fd5b61097087828801610878565b925050606085013567ffffffffffffffff81111561098d57600080fd5b61099987828801610878565b91505092959194509250565b6000600182016109c557634e487b7160e01b600052601160045260246000fd5b5060010190565b6000815180845260005b818110156109f2576020818501810151868301820152016109d6565b506000602082860101526020601f19601f83011685010191505092915050565b608081526000610a2560808301876109cc565b8281036020840152610a3781876109cc565b90508281036040840152610a4b81866109cc565b9150508260608301529594505050505056fea264697066735822122039d3b3eeb6f64ac6c2ff44b8e4c8c4560a30ecb57c53002a5f0d6c553adf2dee64736f6c634300081c0033",
  "linkReferences": {},
  "deployedLinkReferences": {}
}