{
  "_format": "hh-sol-artifact-1",
  "contractName": "CertificateVerifier",
  "sourceName": "contracts/CertificateVerifier.sol",
  "abi": [
    {
      "inputs": [],
      "stateMutability": "nonpayable",
      "type": "constructor"
    },
    {
      "inputs": [
        {
          "internalType": "address",
          "name": "owner",
          "type": "address"
        }
      ],
      "name": "OwnableInvalidOwner",
      "type": "error"
    },
    {
      "inputs": [
        {
          "internalType": "address",
          "name": "account",
          "type": "address"
        }
      ],
      "name": "OwnableUnauthorizedAccount",
      "type": "error"
    },
    {
      "anonymous": false,
      "inputs": [
        {
          "indexed": true,
          "internalType": "bytes32",
          "name": "hash",
          "type": "bytes32"
        },
        {
          "indexed": true,
          "internalType": "address",
          "name": "issuer",
          "type": "address"
        },
        {
          "indexed": false,
          "internalType": "string",
          "name": "name",
          "type": "string"
        },
        {
          "indexed": false,
          "internalType": "string",
          "name": "title",
          "type": "string"
        },
        {
          "indexed": false,
          "internalType": "string",
          "name": "cid",
          "type": "string"
        },
        {
          "indexed": false,
          "internalType": "uint256",
          "name": "timestamp",
          "type": "uint256"
        }
      ],
      "name": "CertificateIssued",
      "type": "event"
    },
    {
      "anonymous": false,
      "inputs": [
        {
          "indexed": true,
          "internalType": "bytes32",
          "name": "hash",
          "type": "bytes32"
        }
      ],
      "name": "CertificateRevoked",
      "type": "event"
    },
    {
      "anonymous": false,
      "inputs": [
        {
          "indexed": true,
          "internalType": "address",
          "name": "issuer",
          "type": "address"
        }
      ],
      "name": "IssuerAdded",
      "type": "event"
    },
    {
      "anonymous": false,
      "inputs": [
        {
          "indexed": true,
          "internalType": "address",
          "name": "issuer",
          "type": "address"
        }
      ],
      "name": "IssuerRemoved",
      "type": "event"
    },
    {
      "anonymous": false,
      "inputs": [
        {
          "indexed": true,
          "internalType": "address",
          "name": "previousOwner",
          "type": "address"
        },
        {
          "indexed": true,
          "internalType": "address",
          "name": "newOwner",
          "type": "address"
        }
      ],
      "name": "OwnershipTransferred",
      "type": "event"
    },
    {
      "inputs": [
        {
          "internalType": "address",
          "name": "_issuer",
          "type": "address"
        }
      ],
      "name": "addIssuer",
      "outputs": [],
      "stateMutability": "nonpayable",
      "type": "function"
    },
    {
      "inputs": [
        {
          "internalType": "address",
          "name": "",
          "type": "address"
        }
      ],
      "name": "authorizedIssuers",
      "outputs": [
        {
          "internalType": "bool",
          "name": "",
          "type": "bool"
        }
      ],
      "stateMutability": "view",
      "type": "function"
    },
    {
      "inputs": [
        {
          "internalType": "bytes32",
          "name": "",
          "type": "bytes32"
        }
      ],
      "name": "certificates",
      "outputs": [
        {
          "internalType": "bytes32",
          "name": "contentHash",
          "type": "bytes32"
        },
        {
          "internalType": "address",
          "name": "issuer",
          "type": "address"
        },
        {
          "internalType": "uint256",
          "name": "timestamp",
          "type": "uint256"
        },
        {
          "internalType": "bool",
          "name": "isValid",
          "type": "bool"
        }
      ],
      "stateMutability": "view",
      "type": "function"
    },
    {
      "inputs": [
        {
          "internalType": "bytes32",
          "name": "_contentHash",
          "type": "bytes32"
        },
        {
          "internalType": "string",
          "name": "_name",
          "type": "string"
        },
        {
          "internalType": "string",
          "name": "_title",
          "type": "string"
        },
        {
          "internalType": "string",
          "name": "_cid",
          "type": "string"
        }
      ],
      "name": "issueCertificate",
      "outputs": [],
      "stateMutability": "nonpayable",
      "type": "function"
    },
    {
      "inputs": [],
      "name": "owner",
      "outputs": [
        {
          "internalType": "address",
          "name": "",
          "type": "address"
        }
      ],
      "stateMutability": "view",
      "type": "function"
    },
    {
      "inputs": [
        {
          "internalType": "address",
          "name": "_issuer",
          "type": "address"
        }
      ],
      "name": "removeIssuer",
      "outputs": [],
      "stateMutability": "nonpayable",
      "type": "function"
    },
    {
      "inputs": [],
      "name": "renounceOwnership",
      "outputs": [],
      "stateMutability": "nonpayable",
      "type": "function"
    },
    {
      "inputs": [
        {
          "internalType": "bytes32",
          "name": "_contentHash",
          "type": "bytes32"
        }
      ],
      "name": "revokeCertificate",
      "outputs": [],
      "stateMutability": "nonpayable",
      "type": "function"
    },
    {
      "inputs": [],
      "name": "totalIssued",
      "outputs": [
        {
          "internalType": "uint256",
          "name": "",
          "type": "uint256"
        }
      ],
      "stateMutability": "view",
      "type": "function"
    },
    {
      "inputs": [],
      "name": "totalRevoked",
      "outputs": [
        {
          "internalType": "uint256",
          "name": "",
          "type": "uint256"
        }
      ],
      "stateMutability": "view",
      "type": "function"
    },
    {
      "inputs": [
        {
          "internalType": "address",
          "name": "newOwner",
          "type": "address"
        }
      ],
      "name": "transferOwnership",
      "outputs": [],
      "stateMutability": "nonpayable",
      "type": "function"
    },
    {
      "inputs": [
        {
          "internalType": "bytes32",
          "name": "_contentHash",
          "type": "bytes32"
        }
      ],
      "name": "verifyCertificate",
      "outputs": [
        {
          "internalType": "bool",
          "name": "exists",
          "type": "bool"
        },
        {
          "internalType": "bool",
          "name": "valid",
          "type": "bool"
        },
        {
          "internalType": "address",
          "name": "issuer",
          "type": "address"
        },
        {
          "internalType": "uint256",
          "name": "timestamp",
          "type": "uint256"
        }
      ],
      "stateMutability": "view",
      "type": "function"
    }
  ],
  "bytecode": "0x6080604052348015600f57600080fd5b503380603557604051631e4fbdf760e01b81526000600482015260240160405180910390fd5b603c81605b565b50336000908152600260205260409020805460ff1916600117905560ab565b600080546001600160a01b038381166001600160a01b0319831681178455604051919092169283917f8be0079c531659141344cd1fd0a4f28419497f9722a3daafe3b4186f6b6457e09190a35050565b610994806100ba6000396000f3fe608060405234801561001057600080fd5b50600436106100b45760003560e01c8063a246b96811610071578063a246b9681461020c578063c6cbc52a1461021f578063e62ce7ac14610232578063f2fde38b14610249578063f5be31931461025c578063f731fa0f1461026557600080fd5b806320694db0146100b957806347bc7093146100ce578063715018a6146100e1578063742f0688146100e9578063850c17681461015b5780638da5cb5b146101f1575b600080fd5b6100cc6100c736600461071a565b610298565b005b6100cc6100dc36600461071a565b6102ec565b6100cc61033d565b61012c6100f736600461074a565b600160208190526000918252604090912080549181015460028201546003909201546001600160a01b03909116919060ff1684565b604080519485526001600160a01b03909316602085015291830152151560608201526080015b60405180910390f35b6101c061016936600461074a565b600090815260016020818152604092839020835160808101855281548152928101546001600160a01b031691830182905260028101549383018490526003015460ff16151560609092018290528215159391929091565b6040516101529493929190931515845291151560208401526001600160a01b03166040830152606082015260800190565b6000546040516001600160a01b039091168152602001610152565b6100cc61021a366004610808565b610351565b6100cc61022d36600461074a565b6104df565b61023b60045481565b604051908152602001610152565b6100cc61025736600461071a565b61065f565b61023b60035481565b61028861027336600461071a565b60026020526000908152604090205460ff1681565b6040519015158152602001610152565b6102a061069d565b6001600160a01b038116600081815260026020526040808220805460ff19166001179055517f05e7c881d716bee8cb7ed92293133ba156704252439e5c502c277448f04e20c29190a250565b6102f461069d565b6001600160a01b038116600081815260026020526040808220805460ff19169055517faf66545c919a3be306ee446d8f42a9558b5b022620df880517bc9593ec0f2d529190a250565b61034561069d565b61034f60006106ca565b565b3360009081526002602052604090205460ff168061037957506000546001600160a01b031633145b6103c25760405162461bcd60e51b815260206004820152601560248201527410d85b1b195c881b9bdd08185d5d1a1bdc9a5e9959605a1b60448201526064015b60405180910390fd5b6000848152600160205260409020600201541561040a5760405162461bcd60e51b815260206004820152600660248201526545786973747360d01b60448201526064016103b9565b604080516080810182528581523360208083019182524283850190815260016060850181815260008b81529382905295832094518555925192840180546001600160a01b0319166001600160a01b03909416939093179092559051600283015591516003918201805460ff191691151591909117905580549161048c836108a6565b9190505550336001600160a01b0316847f754bd83ecd3dea10818b984667f56d2b1a2cce2defe059372aa5cf632efd56f6858585426040516104d19493929190610913565b60405180910390a350505050565b3360009081526002602052604090205460ff168061050757506000546001600160a01b031633145b61054b5760405162461bcd60e51b815260206004820152601560248201527410d85b1b195c881b9bdd08185d5d1a1bdc9a5e9959605a1b60448201526064016103b9565b60008181526001602052604081206002015490036105975760405162461bcd60e51b8152602060048201526009602482015268139bdd08199bdd5b9960ba1b60448201526064016103b9565b600081815260016020819052604090912001546001600160a01b03163314806105ca57506000546001600160a01b031633145b6106055760405162461bcd60e51b815260206004820152600c60248201526b155b985d5d1a1bdc9a5e995960a21b60448201526064016103b9565b6000818152600160205260408120600301805460ff19169055600480549161062c836108a6565b909155505060405181907f44d80a438cb4fa3b5aedbe551ce3d9382e37f446917b783e1dee70a03b4180e390600090a250565b61066761069d565b6001600160a01b03811661069157604051631e4fbdf760e01b8152600060048201526024016103b9565b61069a816106ca565b50565b6000546001600160a01b0316331461034f5760405163118cdaa760e01b81523360048201526024016103b9565b600080546001600160a01b038381166001600160a01b0319831681178455604051919092169283917f8be0079c531659141344cd1fd0a4f28419497f9722a3daafe3b4186f6b6457e09190a35050565b60006020828403121561072c57600080fd5b81356001600160a01b038116811461074357600080fd5b9392505050565b60006020828403121561075c57600080fd5b5035919050565b634e487b7160e01b600052604160045260246000fd5b600082601f83011261078a57600080fd5b813567ffffffffffffffff8111156107a4576107a4610763565b604051601f8201601f19908116603f0116810167ffffffffffffffff811182821017156107d3576107d3610763565b6040528181528382016020018510156107eb57600080fd5b816020850160208301376000918101602001919091529392505050565b6000806000806080858703121561081e57600080fd5b84359350602085013567ffffffffffffffff81111561083c57600080fd5b61084887828801610779565b935050604085013567ffffffffffffffff81111561086557600080fd5b61087187828801610779565b925050606085013567ffffffffffffffff81111561088e57600080fd5b61089a87828801610779565b91505092959194509250565b6000600182016108c657634e487b7160e01b600052601160045260246000fd5b5060010190565b6000815180845260005b818110156108f3576020818501810151868301820152016108d7565b506000602082860101526020601f19601f83011685010191505092915050565b60808152600061092660808301876108cd565b828103602084015261093881876108cd565b9050828103604084015261094c81866108cd565b9150508260608301529594505050505056fea2646970667358221220def6934e65983a2bd31bd06c6484825089344415318b4531d4653d07cc18403b64736f6c634300081c0033",
  "linkReferences": {},
  "deployedLinkReferences": {}
}